:100000000C946C050C94B3050C94B3050C94B305D7
:100010000C94B3050C94B3050C94B3050C94B30580
:100020000C94B3050C94B3050C948F200C946221AE
:100030000C949D170C94B3050C94B3050C94B30564
:100040000C94B3050C94B3050C94B3050C94B30550
:100050000C94B3050C94FE170C94B3050C94B305E3
:100060000C94B3050C94B3050C94B3050C94B30530
:100070000C94B3050C94B3050C94B3050C94B30520
:100080000C94B3050C94B3050C94B3050C94B30510
:100090000C94B3050C94B3050C94B3050C94B30500
:1000A0000C94B3050C94B3050C94B305290014000B
:1000B0001A000800150017001C0018000C001200A0
:1000C00013002F02300200002A001E001F002B0028
:1000D00004001600070009000A000B000D000E00C6
:1000E0000F00330034003100000028002000210000
:1000F000E1001D001B0006001900050011001000A2
:1001000036003700380052004A004D00220023001C
:100110002400E00001510000E200000000002C007B
:10012000000000000000500051004F004C0025006E
:100130002600270035003A003B003C003D003E0011
:100140003F004000410042004300440045000000E1
:1001500046002D002E0039000100010001000100C1
:100160000100010001000100010001000100010087
:100170000000010001000100010001000100010078
:1001800001000100010001000100010001004B001D
:100190000100010001000100010001000100000058
:1001A000010000000000010000000000000001004C
:1001B0004E0001000100010001000070010001007B
:1001C0000100010001000100010001000100010027
:1001D0000100010001000000010001000100010018
:1001E0000100010001000100010001000100010007
:1001F00001000100010001000000010001000100F8
:1002000001000100010001000100010001000100E6
:1002100001000100010001000100010001000100D6
:1002200001000100010000000100000000000100C9
:1002300000000000000001000100010001000100B9
:1002400001000100010001000100010001000100A6
:100250000100010001000100010001000100000097
:100260000100010001000100010001000100010086
:100270000100010001000100010001000100010076
:100280000000010001000100010001000100010067
:100290000100010001000100010001000100010056
:1002A0000100010001000100010001000100000047
:1002B000010000000000010000000000000001003B
:1002C0000100010001000100010001000100010026
:1002D0000100010001000100010001000100010016
:1002E0000100010001000000010001000100010007
:1002F00001000100010001000100010001000100F6
:1003000001000100010001000000010001000100E6
:1003100001000100010001000100010001000100D5
:1003200001000100010001000100010001000100C5
:1003300001000100010000000100000000000100B8
:1003400000000000000001000100010001000100A8
:100350000100010001000100010001000100010095
:100360000100010001000100010001000100000086
:100370000100010001000100010001000100010075
:100380000100010001000100010001000100010065
:100390000000010001000100010001000100010056
:1003A0000100010001000100010001000100010045
:1003B0000100010001000100010001000100000036
:1003C000010000000000010000000000000001002A
:1003D0000100010001000100010001000100010015
:1003E0000100010001000100010001000100010005
:1003F00001000100010000000100010001000100F6
:1004000001000100010001000100010001000100E4
:1004100001000100010001000000010001000100D5
:1004200001000100010001000100010001000100C4
:1004300001000100010001000100010001000100B4
:1004400001000100010000000100000000000100A7
:100450000000000000000100010001000100010097
:100460000100010001000100010001000100010084
:100470000100010001000100010001000100000075
:100480000100010001000100010001000100010064
:100490000100010001000100010001000100010054
:1004A0000000010001000100010001000100010045
:1004B0000100010001000100010001000100010034
:1004C0000100010001000100010001000100000025
:1004D0000100000000000100000000000000010019
:1004E0000100010001000100010001000100010004
:1004F00001000100010001000100010001000100F4
:1005000001000100010000000100010001000100E4
:1005100001000100010001000100010001000100D3
:1005200001000100010001000000010001000100C4
:1005300001000100010001000100010001000100B3
:1005400001000100010001000100010001000100A3
:100550000100010001000000010000000000010096
:100560000000000000000100010001000100010086
:100570000100010001000100010001000100010073
:100580000100010001000100010001000100000064
:100590000100010001000100010001000100010053
:1005A0000100010001000100010001000100010043
:1005B0000000010001000100010001000100010034
:1005C0000100010001000100010001000100010023
:1005D0000100010001000100010001000100000014
:1005E0000100000000000100000000000000010008
:1005F00001000100010001000100010001000100F3
:1006000001000100010001000100010001000100E2
:1006100001000100010000000100010001000100D3
:1006200001000100010001000100010001000100C2
:1006300001000100010001000000010001000100B3
:1006400001000100010001000100010001000100A2
:100650000100010001000100010001000100010092
:100660000100010001000000010000000000010085
:100670000000000000000100010001000100010075
:100680000100010001000100010001000100010062
:100690000100010001000100010001000100000053
:1006A0000100010001000100010001000100010042
:1006B0000100010001000100010001000100010032
:1006C0000000010001000100010001000100010023
:1006D0000100010001000100010001000100010012
:1006E0000100010001000100010001000100000003
:1006F00001000000000001000000000000000100F7
:1007000001000100010001000100010001000100E1
:1007100001000100010001000100010001000100D1
:1007200001000100010000000100010001000100C2
:1007300001000100010001000100010001000100B1
:1007400001000100010001000000010001000100A2
:100750000100010001000100010001000100010091
:100760000100010001000100010001000100010081
:100770000100010001000000010000000000010074
:100780000000000000000100010001000100010064
:100790000100010001000100010001000100010051
:1007A0000100010001000100010001000100000042
:1007B0000100010001000100010001000100010031
:1007C0000100010001000100010001000100010021
:1007D0000000010001000100010001000100010012
:1007E0000100010001000100010001000100010001
:1007F00001000100010001000100010001000000F2
:1008000001000000000001000000000000000100E5
:1008100001000100010001000100010001000100D0
:1008200001000100010001000100010001000100C0
:1008300001000100010000000100010001000100B1
:1008400001000100010001000100010001000100A0
:100850000100010001000100000001000100010091
:100860000100010001000100010001000100010080
:100870000100010001000100010001000100010070
:100880000100010001000000010000000000010063
:100890000000000000000100010001000100010053
:1008A0000100010001000100010001000100010040
:1008B0000100010001000100010001000100000031
:1008C0000100010001000100010001000100010020
:1008D0000100010001000100010001000100010010
:1008E0000000010001000100010001000100010001
:1008F00001000100010001000100010001000100F0
:1009000001000100010001000100010001000000E0
:1009100001000000000001000000000000000100D4
:1009200001000100010001000100010012036B0041
:100930006500790062006F006100720064000000D1
:10094000160371006D006B006200750069006C0099
:1009500064006500720000000403090409026D00D0
:10096000040100A0FA0904000001030101000921AB
:10097000110100012240000705810308000A090453
:1009800001000103010200092111010001224D00B3
:100990000705820308000A090402000103000000A1
:1009A0000921110100012236000705830308000A0E
:1009B00009040300010300000009211101000122C4
:1009C0003900070584032000011201100100000016
:1009D00008EDFE606001000102000105010906A1A9
:1009E00001050719E029E715002501950875018122
:1009F00002050819012905950575019102950175F2
:100A00000391010507190029F71500250195F875CF
:100A1000018102C005010980A1018502160100269D
:100A200003001A81002A8300751095018100C0051A
:100A30000C0901A1018503160100269C021A010080
:100A40002A9C02751095018100C005010902A101CF
:100A50000901A100050919012905150025019505C0
:100A60007501810295017503810105010930093184
:100A70001581257F95027508810609381581257F26
:100A8000950175088106050C0A38021581257F95A8
:100A90000175088106C0C005010906A101050719F5
:100AA000E029E7150025019508750181029501757A
:100AB000088101050819012905950575019102951F
:100AC00001750391010507190029FF150026FF0094
:100AD000950675088100C00011241FBECFEFDAE033
:100AE000DEBFCDBF04B603FE27C080915B029091AC
:100AF0005C02A0915D02B0915E028730904BA740EE
:100B0000B04BD1F410925B0210925C0210925D0225
:100B100010925E0214BE84B7877F84BF0FB6F8942C
:100B2000A8958091600088618093600010926000B9
:100B30000FBEE0E0F8E3099511E0A0E0B1E0EEE9D6
:100B4000F9E402C005900D92AC33B107D9F722E069
:100B5000ACE3B1E001C01D92AB35B207E1F70E94F2
:100B6000E51D0C94A1240C94000090E080E0089511
:100B70000895089581E00895089581E008950C9402
:100B8000BA050E94DE0F2FEF84E39CE021508040E5
:100B90009040E1F700C000000C942118EF92FF9202
:100BA0000F931F93CF93DF938C01FC01E080F180C2
:100BB00080918801811140C082818823C1F1C701E1
:100BC0000E946315C82F682FC7010E940C15B7013A
:100BD0008C2F0E940607EC01B8010E94BF058823F4
:100BE00009F44BC0B801CE010E940F09882309F413
:100BF00044C0C531F0E7DF0720F5C23080E7D807F1
:100C000008F04DC0C115E0E7DE0791F1C130D047D3
:100C1000E1F181E080933E0180933F01C801DF91C3
:100C2000CF911F910F91FF90EF900C94BD05C701DC
:100C30000E943A15C82FCBCFC7010E946315B70198
:100C4000C8CFCC3380E7D80709F49BC0CD33D04759
:100C500001F7F8018281882309F4BAC010923F019C
:100C60000E94CD1790933D0180933C0180E296C095
:100C7000F801828181110E94C10580E0DF91CF914E
:100C80001F910F91FF90EF900895F80182818823C2
:100C9000A1F380911B02816080931B02EECFF801CB
:100CA0008281882309F4BACF0E941E17811102C0E5
:100CB0000E9404170E943B1790E090934D0280938E
:100CC0004C02FE01E350F04780914C028160E2311A
:100CD000F10538F4ED55FB4D0C94512480914C02F4
:100CE000826080934C0280914C020E943F170E94C8
:100CF000DE0FC3CF80914C028460F3CF80914C0211
:100D00008860EFCF80914C028061EBCF80914C02E4
:100D10008062E7CF80914C028064E3CF80914C02E7
:100D20008068DFCF80914C028C60DBCF80914C02D9
:100D30008E7FD7CF80914C028D7FD3CF80914C0294
:100D40008B7FCFCF80914C02877FCBCF80914C029D
:100D50008F7EC7CF80914C028F7DC3CF80914C0294
:100D60008F7BBFCF80914C028F77BBCF80914C029D
:100D7000837FB7CF90914C02892F97FB87F98058DA
:100D8000B0CFF8018281882361F010923E010E9469
:100D9000CD1790933D0180933C0182E00E94430D6A
:100DA0006CCF80913E0181110FC080913C019091E8
:100DB0003D010E94D917883C910530F486E20E94DB
:100DC000180C86E20E94F40C82E00E944A0D55CF76
:100DD00080913F0181110FC080913C0190913D01B4
:100DE0000E94D917883C910530F487E20E94180CC4
:100DF00087E20E94F40C80E2E8CF0C945E090C9428
:100E000060090C94BC050C9401070895972F70E0BD
:100E100021E1929F600D711D1124FB0194E4899FD3
:100E2000E00DF11D1124EE0FFF1FE455FF4F8591DA
:100E300094910895FC01EE0FFF1FE45DF64F85913C
:100E4000949108950E9406070E9493089C018115C1
:100E500040E4940708F097C0211580E3380708F0B4
:100E6000FAC0203E310508F074C0203C310508F07E
:100E7000E5C0283A310588F4253A310508F0E2C08A
:100E80002130310509F477C0C9010497813A9105F1
:100E900008F471C030E020E06EC0C901885A9109A1
:100EA0004597C0F7283A310509F4FEC0293A3105C3
:100EB00009F4FDC02A3A310509F4FCC02B3A31058A
:100EC00009F4FBC02C3A310509F4FAC02B3B31057B
:100ED00009F4F9C02C3B310509F4F8C02D3A31056D
:100EE00009F4F7C0203B310509F4F6C02E3A31056C
:100EF00009F4F5C02F3A310509F4F4C0213B31055E
:100F000009F4F3C0223B310509F4F2C0233B31055B
:100F100009F4F1C0243B310509F4F0C0253B31054B
:100F200009F4EFC0263B310509F4EEC0273B31053B
:100F300009F4EDC0283B310509F4ECC0293B31052B
:100F400009F4EBC02A3B310509F4EAC020E034E49F
:100F500012C0211590E2390780F42F3F310509F0C6
:100F600050F4283E310538F0C901805F91093065A1
:100F7000409708F08FCFC9010895C9019F700E9462
:100F80001A079C01F8CF8115944508F041C021153E
:100F900083E5380708F06AC0211592E5390738F56E
:100FA000211541E5340708F05CC0211580E53807BC
:100FB00008F454C0C90134E0969587953A95E1F755
:100FC0008370422F46954695437090E2499FA00159
:100FD0001124582B822F837021E030E002C0220FB1
:100FE000331F8A95E2F7242B352B3C68C4CFC90107
:100FF0008370992741E050E002C0440F551F8A9545
:10100000E2F72695269580E2289F90011124EBCFE8
:10101000211596E5390748F4922F88272115354583
:10102000C8F59C01246F306AA6CFC90190563F7065
:101030008115904108F02ECF30629DCFC901805CB0
:1010400091099DCF253A310549F1263A310549F5F7
:1010500022E830E490CF3327306C8DCF3F70306A78
:101060008ACF322F2227216F306A85CFC901837042
:10107000992741E050E002C0440F551F8A95E2F7DE
:101080002695269580E2289F90011124242B352B4C
:101090003A6871CF88279F719C01CECF21E830E458
:1010A0006ACF23E830E467CF22EE34E464CF29EE40
:1010B00034E461CF2AEE34E45ECF25EB34E45BCF39
:1010C00026EB34E458CF23EB34E455CF24EB34E45F
:1010D00052CF27EB34E44FCF2CEC34E44CCF2DEC43
:1010E00034E449CF23E835E446CF2AE835E443CF5A
:1010F00022E935E440CF24E935E43DCF21E236E46E
:101100003ACF23E236E437CF24E236E434CF25E287
:1011100036E431CF26E236E42ECF27E236E42BCF79
:101120002AE236E428CF803E910581F1C8F481336C
:10113000910509F462C048F48932910509F456C05A
:101140008A32910509F460C0089589339105B9F098
:1011500082389105A1F08533910509F440C00895C6
:10116000863E910561F138F4823E9105B1F0833EEF
:101170009105E1F00895873E910551F10895209180
:101180004C022370D9F080EE90E0089520914C023B
:1011900020FF14C089E390E0089520914C0222FFC3
:1011A0000DC024FD09C083EE90E0089520914C020B
:1011B00022FD31C024FF02C090E080E0089520911C
:1011C0004C0223FFFBCF24FDF7CF87EE90E008957C
:1011D00020914C0223FFEECF86EE90E008952091FF
:1011E0004C0225FFEBCF89E290E0089520914C025C
:1011F00025FFE4CF85E390E0089520914C0226FF7F
:10120000DDCF8AE290E0089520914C0226FFD6CFF0
:1012100081E390E0089582EE90E0089508950F93A1
:101220001F93CF938C01FB018281811106C0C1E025
:101230008C2FCF911F910F910895C0914D01C11135
:1012400025C00531104799F70E940E0981E080936F
:101250004D010E94CD1790934C0180934B01109249
:1012600040011092420110924101109244011092EB
:1012700043011092460110924501109248011092CC
:10128000470110924A0110924901D2CF80914B013F
:1012900090914C010E94D917883C910540F68091AD
:1012A0004001E82FF0E0EE0FFF1FEF5BFE4F1183D0
:1012B00000838F5F80934001C0E0BACF0C94B805E3
:1012C0000C94B90585B7806885BF85B7806885BFF0
:1012D000A4E2B1E061E070E08D91E82FE295EF705B
:1012E000F0E041A18F709B0101C0220F8A95EAF7BF
:1012F000922F9095942391A382A1822B82A381E0C7
:10130000A832B80749F7A3E1B1E061E070E08D9140
:10131000E82FE295EF70F0E041A18F709B0101C0D2
:10132000220F8A95EAF7922F9095942391A382A198
:10133000822B82A381E0A432B80749F7EEE5F1E001
:10134000AEE4B1E08EE691E0119211921192119209
:101350001D921D921D921D928E179F07A9F70C9446
:10136000FD062F923F924F925F926F927F928F92E3
:101370009F92AF92BF92CF92DF92EF92FF920F9324
:101380001F93CF93DF93CDB7DEB72B970FB6F894AB
:10139000DEBF0FBECDBF8EE4282E81E0382E04E2E2
:1013A00011E01E830D8338862F82C12CD12C76014B
:1013B000C394AF81B8858D909D90AD90BD90B88756
:1013C000AF83FD011292129212921292FB87EA876A
:1013D000AD81BE818D91BE83AD83E82FE295EF7024
:1013E000F0E091A18F7001E010E002C0000F111F2A
:1013F0008A95E2F71A830983802F892B81A382A122
:1014000000950987802382A310EA1A95F1F723E15A
:1014100031E03C832B8390E080E0AB81BC817D9008
:10142000BC83AB83272D22952F7030E0D901909695
:101430005C90AA85BB854D915D916D917C91272D26
:101440002F7001E010E002C0000F111F2A95E2F793
:101450009801252109F07AC097018601082E04C061
:10146000000F111F221F331F0A94D2F728013901E0
:101470004429552966297729AA85BB854D935D9313
:101480006D937C93139701968131910531F681A17B
:101490001985182311A382A1B9818B2B82A3EA8518
:1014A000FB8580819181A281B38188169906AA0665
:1014B000BB0649F0F1E0F0936E010E94CD179093C6
:1014C000700180936F010F8118850E55114009F04E
:1014D00070CF80916E018823E9F080916F01909127
:1014E00070010E94D9170697A8F02EE531E0F101AE
:1014F00081919191A191B1911F01F90181939193F2
:10150000A193B1939F01FEE52F16F1E03F0679F715
:1015100010926E010E94FF0681E02B960FB6F894A0
:10152000DEBF0FBECDBFDF91CF911F910F91FF9016
:10153000EF90DF90CF90BF90AF909F908F907F9073
:101540006F905F904F903F902F900895412C512CB9
:1015500032018ECFCF93DF9300D000D0CDB7DEB76E
:1015600094E0899FF0011124E25AFE4F808191811D
:10157000A281B381BC01CD010F900F900F900F900D
:10158000DF91CF910895089590937601809375012E
:101590000895E0917501F0917601309721F0019066
:1015A000F081E02D099480E00895E0917501F091BB
:1015B0007601309721F00280F381E02D099408959F
:1015C000E0917501F0917601309721F00480F5816A
:1015D000E02D09940895209173013091740128172A
:1015E000390771F09093740180937301E091750154
:1015F000F0917601309721F00680F781E02D099473
:10160000089520917101309172012817390771F006
:101610009093720180937101E0917501F0917601D0
:10162000309721F00084F185E02D09940895089504
:101630000C94170B0E94C4170E9462090C948D1819
:101640004F925F926F927F929F92AF92BF92CF9292
:10165000DF92EF92FF920F931F93CF93DF9300D00F
:1016600000D00F92CDB7DEB70E94B10928E7A22EB5
:1016700021E0B22E10E000E0902E802F0E94AA0AF6
:101680006B017C01F50141905190619071905F0177
:101690004C145D046E047F0409F475C080911B0234
:1016A00081FD0E94C30A90E080E04C245D246E24FA
:1016B0007F24B301A201082E04C076956795579543
:1016C00047950A94D2F740FF59C089839A82412CEA
:1016D000512C3201439404C0440C551C661C771CE9
:1016E0008A95D2F7C420D520E620F72081E0CD28C6
:1016F000CE28CF2809F480E08B830E94CD1781602B
:10170000782F9D838C8349815A816B818D810E94C2
:10171000EF0B000F111F000F111FF801E858FE4FCB
:1017200080819181A281B38184259525A625B72545
:1017300080839183A283B3830E943A1B0E94C90ACB
:10174000909177018917B1F10E94C90A80937701BE
:101750000F900F900F900F900F90DF91CF911F91EE
:101760000F91FF90EF90DF90CF90BF90AF909F9040
:101770007F906F905F904F900C940307019681319A
:10178000910509F096CF0F5F1F4F0430110509F046
:1017900073CF8FEF89838A831B820E94CD1781606C
:1017A000782F9D838C8349815A816B818D810E9422
:1017B000EF0BC2CF0F900F900F900F900F90DF9113
:1017C000CF911F910F91FF90EF90DF90CF90BF903E
:1017D000AF909F907F906F905F904F900895CF93C0
:1017E000DF93CDB7DEB72B970FB6F894DEBF0FBEF1
:1017F000CDBF4F83588769877A878B871E8285E0A4
:10180000FE013796DE01119601900D928A95E1F75F
:1018100049815A816B817C818D819E812B960FB687
:10182000F894DEBF0FBECDBFDF91CF910C9466124E
:10183000882309F4D8C0823871F40E94C90A81FD56
:10184000D2C089E30E940B160E94D51689E30E943C
:1018500048160C94D516833859F40E94C90A80FDA5
:10186000C2C083E50E940B160E94D51683E5EFCF18
:10187000843859F40E94C90A82FDB5C087E40E94E9
:101880000B160E94D51687E4E2CF9CEF980F913A91
:1018900018F40E940B16DDCF90E2980F983050F4A8
:1018A000877091E001C0990F8A95EAF7892F0E940D
:1018B0008C16CFCF9BE5980F933070F4853A31F0BA
:1018C000863A39F083E890E00C94EB0A81E890E0E6
:1018D000FBCF82E890E0F8CF98E5980F953108F0BB
:1018E00082C0883A09F440C0893A09F440C08A3A73
:1018F00009F440C08B3A09F440C08C3A09F440C066
:101900008B3B09F440C08C3B09F440C08D3A09F48C
:1019100040C0803B09F440C08E3A09F440C08F3A81
:1019200009F440C0813B09F440C0823B09F440C047
:10193000833B09F440C0843B09F440C0853B09F473
:1019400040C0863B09F440C0873B09F440C0883B57
:1019500009F440C0893B09F440C08A3B09F440C007
:1019600090E080E00C94010B82EE90E0FBCF89EEDA
:1019700090E0F8CF8AEE90E0F5CF85EB90E0F2CFE3
:1019800086EB90E0EFCF83EB90E0ECCF84EB90E040
:10199000E9CF87EB90E0E6CF8CEC90E0E3CF8DECE5
:1019A00090E0E0CF83E891E0DDCF8AE891E0DACF04
:1019B00082E991E0D7CF84E991E0D4CF81E292E04F
:1019C000D1CF83E292E0CECF84E292E0CBCF85E22A
:1019D00092E0C8CF86E292E0C5CF87E292E0C2CF24
:1019E0008AE292E0BFCF0895882309F44BC0823881
:1019F00071F40E94C90A81FF45C089E30E940B1659
:101A00000E94D51689E30E9448160C94D516833897
:101A100059F40E94C90A80FF35C083E50E940B1665
:101A20000E94D51683E5EFCF843859F40E94C90A85
:101A300082FF28C087E40E940B160E94D51687E417
:101A4000E2CF9CEF980F913AF0F290E2980F983025
:101A500050F4877091E001C0990F8A95EAF7892FB9
:101A60000E949216D2CF9BE5980F933020F490E01D
:101A700080E00C94EB0A885A853120F490E080E0F5
:101A80000C94010B0895882321F00E948C160C946D
:101A9000D5160895882321F00E9492160C94D5162D
:101AA00008958F929F92AF92BF92DF92EF92FF9232
:101AB0000F931F93CF93DF9300D000D00F92CDB739
:101AC000DEB77C016D837983FC01058102950F707F
:101AD000128111110E94AB160E940416D82E882381
:101AE00071F01123A1F08D81805E883080F082E05A
:101AF0000E94EE150E94041691E0D82ED926E981A5
:101B0000E295EF70F0E0EB54FB4D0C945124D12C96
:101B1000F6CF09810F70F981F07F11F00295007FF7
:101B20001123B1F0002361F08D81805E883018F0C0
:101B30002D81211109C0802F0E948C160E94D5167C
:101B40008D810E94180C15C0802F0E949D16F6CF23
:101B50008D810E94F40C002361F08D81805E8830BD
:101B600018F03D81311129C0802F0E9492160E94E9
:101B7000D516DD2009F4D3C10E94E11580FDCFC147
:101B8000F70112820E94DB150E942414C7010E94F3
:101B9000A00F0E94DB150F900F900F900F900F90E9
:101BA000DF91CF911F910F91FF90EF90DF90BF9049
:101BB000AF909F908F900C944614802F0E94A31694
:101BC000D6CF49814F70B42E5981507F503219F0D1
:101BD000B29480EFB8228D81882369F0813029F199
:101BE000112369F1002359F0F701858180FFA8CF07
:101BF0008F70858304C0112361F0011104C08B2D07
:101C00000E94430DB6CF8B2D0130D1F70E94BF1635
:101C1000B0CF011106C00E94C2168B2D0E944A0D42
:101C2000A8CF013009F4A5CFF6CF112321F006305B
:101C300008F09FCFE4CF053008F09BCFEECF002314
:101C400061F38D810E94F40C94CF898186958695ED
:101C5000837069F0813009F08CCF8D819981937008
:101C6000111102C090E080E00E94010B82CF8D81B3
:101C700099819370111102C090E080E00E94EB0AFC
:101C800078CF8D81112329F00E94481A0E942F1BC2
:101C900070CF0E94B01AFACF8981837009F05FC0BB
:101CA000111167CF2D81229526952770220F220FC3
:101CB0008D818F7090E0B0E0A0E04C015D01022EBC
:101CC00004C0880C991CAA1CBB1C0A94D2F7FD8185
:101CD00060E070E0CB01F4FF0FC06FE070E080E0E7
:101CE00090E004C0660F771F881F991F2A95D2F7CE
:101CF00060957095809590952981269526952370FD
:101D00002D832230B1F0233019F19B01AC01282939
:101D100039294A295B2929833A834B835C833D8196
:101D200069817A818B819C813130B1F00E94B1133D
:101D300020CF9B01AC01282939294A295B29298315
:101D40003A834B835C83CA01B9010E94DB1311CF34
:101D50000E94B113C501B4010E9487130ACF869572
:101D6000112311F089818170882309F402CF2D811C
:101D7000229526952770220F220F8D818F7090E07B
:101D8000B0E0A0E04C015D01022E04C0880C991C5B
:101D9000AA1CBB1C0A94D2F73D8160E070E0CB0125
:101DA00034FF0FC06FE070E080E090E004C0660F89
:101DB000771F881F991F2A95D2F760957095809597
:101DC000909549814695469543704D834230B1F0D8
:101DD000433019F19B01AC01282939294A295B2993
:101DE00029833A834B835C833D8169817A818B812E
:101DF0009C813130B1F00E94B714BBCE9B01AC0185
:101E0000282939294A295B2929833A834B835C8312
:101E1000CA01B9010E94E114ACCE0E94B714C501F9
:101E2000B4010E948D14A5CE3D81323F09F447C014
:101E300080F4303F79F1313FD9F1832F805E8031DA
:101E4000D0F0112309F456C001117ACE89818F7127
:101E500033C04D81433FD1F1443F99F7112309F439
:101E60003FC089818F7189830E94241463E0898136
:101E70000E94E5157ECE5D815F705D8389818F71E3
:101E8000112321F00E9424148D81BACE0E944614A1
:101E90008D81C4CE112341F0053008F06ACE8981CE
:101EA0008F710E946B1465CE063008F062CEF7CFBA
:101EB00089818F71112339F00E9424145ACE8981AF
:101EC0008F711123C9F30E94461453CE112329F0B8
:101ED00089818F710E940F144CCE0E94051449CE47
:101EE00081E00E94EE15023008F443CE82E00E94A9
:101EF000EE153FCE0111A5CE89818F71E4CF4981C6
:101F00004F706D81C7010E94B5050E94001331CE4C
:101F100049814F706D81C7010E9405072ACE0F903D
:101F20000F900F900F900F90DF91CF911F910F9115
:101F3000FF90EF90DF90BF90AF909F908F900895AB
:101F40000F931F93CF93DF93EC018B819C81892B9F
:101F500029F08881998189238F3F29F4DF91CF91DE
:101F60001F910F910895CE010E94CE058823B1F3F1
:101F7000688179818A810E94B1158C010E940B15BC
:101F80000E947C13B801CE01DF91CF911F910F9178
:101F90000C94510D0E94AB160E94BC160E947E1636
:101FA0000E94D5160E94201C0E942F1B90E080E00A
:101FB0000E94EB0A90E080E00C94010B0E949A16BC
:101FC0000C94CA0F0E94A515282F892F82958F7017
:101FD000903C80F48A30B0F4843020F4823090F465
:101FE00080E008958630E1F781E0203E88F0213FCF
:101FF000B9F70EC08C3011F08F3091F793FB882722
:1020000080F9089581E0203F39F018F4203E40F730
:102010000895243F29F7FCCF0895CF93DF9300D094
:1020200000D00F92CDB7DEB70F900F900F900F90AA
:102030000F90DF91CF910895CF93DF9300D000D020
:1020400000D0CDB7DEB726960FB6F894DEBF0FBE30
:10205000CDBFDF91CF9108951F93CF93DF93E09190
:10206000890116E080918A018E1304C0DF91CF911F
:102070001F910895CE2FD0E01E9FF0011124E55747
:10208000FE4F4081518162817381848195810E94DC
:102090001C10FE013196E770E5CF4091BB015091D5
:1020A000BC016091BD017091BE018091BF01909112
:1020B000C0010C941C101F93CF93DF938091C0013B
:1020C000807FC1F48091BD018823A1F080918901B6
:1020D000C0918A016091BB017091BC014091BE0129
:1020E0005091BF01D62FD723DA01A095B09516E005
:1020F000C81304C0DF91CF911F91089590E041155E
:10210000510511F0DF3F31F401968770F1CF2A0FAE
:102110003B1F17C0189FF001199FF00D1124E557C0
:10212000FE4F21812713F0CF20812613EDCF22818E
:102130002111EACF238134812417350740F3241B72
:10214000350B283C310500F72091C0012F7020612C
:102150002093C00126E0289FF001299FF00D112453
:10216000E057FE4F80818F70806180838BEB91E020
:102170000E94A00FDF91CF911F910C942C109F9281
:10218000AF92BF92CF92DF92EF92FF920F931F9385
:10219000CF93DF93CDB7DEB72B970FB6F894DEBFA2
:1021A0000FBECDBF8C0185E0F801DE0117960190CE
:1021B0000D928A95E1F7D8014C9111965C91119797
:1021C0001296EC9012978091BE019091BF010097FA
:1021D00009F46BC12091BB013091BC01632F6223D4
:1021E0006F3F09F462C11396CD90DC909090BD01D1
:1021F000992009F4F8C0C816D90608F43FC0F601C2
:10220000E81BF90BCF01FF24F394883C910508F0FB
:10221000F12C8BEBA82E81E0B82E8091C001982F75
:10222000907FFF2009F4B7C0911180C0FE2C3513B8
:102230002AC0241328C0E11026C08F7080618093CB
:10224000C0010E944D10C5010E94A00F8091C001E5
:10225000D80115968C938F2D2B960FB6F894DEBF70
:102260000FBECDBFDF91CF911F910F91FF90EF90E7
:10227000DF90CF90BF90AF909F90089580959095FC
:102280008C0D9D1DC0CFCD2829F0842F85238F3F35
:1022900009F019C180E0B82FB170DB2EE0918901FF
:1022A00020918A0136E080FD1CC0EE20A1F28091D1
:1022B000C00181608093C001F12CCDCF8E2F90E0C2
:1022C0003E9FF0011124E557FE4F6181651306C062
:1022D0006081641303C062816E11E7CFFC01319607
:1022E000E770E213EBCF4F8358878F8198850E9468
:1022F000A515292F22952F70903260F0225F2F7044
:10230000223078F49F7051F0F8019581907F31F47C
:10231000D12C0AC09F7011F08823D1F3805E8830E1
:10232000B8F3C8010E94A00FFD2C95CF351306C04D
:10233000241304C0D801EE2009F47BC04F835887D2
:102340008F8198850E94E20F882309F4B8C0EE209F
:1023500009F4B5C08091C001803270F02091BB01BA
:102360003091BC013A8329831B82DD82CC828E832B
:10237000CE0101960E94A00F86E0F801ABEBB1E020
:1023800001900D928A95E1F70E945B100E944D101A
:10239000FF24F39460CF911113C07C2DDB86CA8695
:1023A0006E2D8B850E940D108BEB91E00E94A00F8B
:1023B00086E0F50111928A95E9F70E944D104BCF06
:1023C0003513BCCF2413BACFE110B8CFD80115967E
:1023D0008C93C8010E94A00F86E0F50111928A95A6
:1023E000E9F7F92C38CFC816D90688F1B601681B71
:1023F000790BCB01F12C883C910508F047C0FE2CED
:10240000EE2009F45CC0351330C024132EC0809137
:10241000C00180FD21C0982F907FF1F0D801159662
:102420008C931597903F39F0982F907F905F8F7025
:10243000892B15968C93C8010E94A00F86E0F801A5
:10244000ABEBB1E001900D928A95E1F7B6CF8095A4
:1024500090958C0D9D1DCECF86E0F801ABEBB1E0E1
:1024600001900D928A95E1F7F6CE4F8358878F81C0
:1024700098850E94E20F81117FCF8091C001816019
:102480008093C001C8010E94A00FE5CE7C2DDB86A1
:10249000CA866E2D8B850E940D1086E0EBEBF1E075
:1024A000DF011D928A95E9F788CFEE2041F04F8336
:1024B00058878F8198850E94E20F81115DCFC801F6
:1024C0000E94A00F65CF81E08E25E5CE1F93CF93AC
:1024D000DF93CDB7DEB72C970FB6F894DEBF0FBEF3
:1024E000CDBF4F83588769877A878B879C87CE01BA
:1024F00007960E94BF10882369F08A859B85892BE7
:1025000039F04F815885842F85238F3F09F071C0A2
:1025100016E05FC086E0FE013796DE01119601905D
:102520000D928A95E1F78A859B85892B89F38885A9
:102530009F8189238F3F61F320918A0130E0C90197
:10254000019687709927409189014817190671F4FF
:102550000E94DE0F10928A011092890186E0EBEB57
:10256000F1E0DF011D928A95E9F7D2CF96E0929FC4
:10257000D001939FB00D1124A557BE4FFE01319697
:1025800001900D929A95E1F780938A010E942C1098
:10259000BFCF819FC001112485579E4F0E94BF105D
:1025A0008823E9F0E09189011E9FF0011124E5578D
:1025B000FE4F4081518162817381848195810E94A7
:1025C0001C108091890190E0019687709927809373
:1025D00089018091890190918A018913DACF2C9623
:1025E0000FB6F894DEBF0FBECDBFDF91CF911F9124
:1025F000089569857A858B859C850E941C1088CFFB
:10260000EF92FF920F931F93CF93DF938C01892B4F
:1026100089F0F12CEE24E394E8012196F8018491ED
:10262000843709F457C0A0F4823009F43EC048F45E
:102630008130D1F0DF91CF911F910F91FF90EF90FA
:1026400008959CEF980F9037A8F70E94180C0AC0C5
:10265000853709F44CC09CE7980F903758F78F776F
:102660000E94F40C8E0116C00E5F1F4FFE01849174
:1026700090E2980F983060F48770FE2D01C0FF0F34
:102680008A95EAF78F2F0E94AE160E94D51602C0D7
:102690000E94180C8F2D815008F4BECFEFE9FFE0A7
:1026A0003197F1F700C00000F6CF0E5F1F4FFE011B
:1026B000849190E2980F983050F48770FE2D01C0FD
:1026C000FF0F8A95EAF78F2F0E94B416DECF0E9483
:1026D000F40CE0CF0E5F1F4FFE01C491C150D0F249
:1026E0008FE99FE00197F1F700C00000F7CF0E5F80
:1026F0001F4FFE01F490CECF08956093F2017093C6
:10270000F3018093F4019093F5010C94CA0FCF93D9
:10271000DF9300D000D0CDB7DEB769837A838B8397
:102720009C838091F2019091F301A091F401B0910A
:10273000F50129813A814B815C81822B932BA42B5B
:10274000B52B8093F2019093F301A093F401B09321
:10275000F5010F900F900F900F90DF91CF910C9497
:10276000CA0FCF93DF9300D000D0CDB7DEB7698317
:102770007A838B839C838091F2019091F301A091E5
:10278000F401B091F50129813A814B815C8182236A
:102790009323A423B5238093F2019093F301A09394
:1027A000F401B093F5010F900F900F900F90DF910F
:1027B000CF910C94CA0FCF93DF9300D000D0CDB748
:1027C000DEB769837A838B839C838091F201909139
:1027D000F301A091F401B091F50129813A814B8177
:1027E0005C8182279327A427B5278093F2019093D9
:1027F000F301A093F401B093F5010F900F900F90A7
:102800000F90DF91CF910C94CA0F1092EE011092AD
:10281000EF011092F0011092F1010C94CA0F41E007
:1028200050E060E070E004C0440F551F661F771F42
:102830008A95D2F74093EE015093EF016093F00137
:102840007093F1010C94CA0F282F81E090E0A0E072
:10285000B0E004C0880F991FAA1FBB1F2A95D2F7AA
:102860004091EE015091EF016091F0017091F10102
:10287000842B952BA62BB72B8093EE019093EF0121
:10288000A093F001B093F1010C94CA0F41E050E025
:1028900060E070E004C0440F551F661F771F8A95E3
:1028A000D2F740955095609570958091EE0190918A
:1028B000EF01A091F001B091F10184239523A623AB
:1028C000B7238093EE019093EF01A093F001B093B2
:1028D000F1010C94CA0F282F81E090E0A0E0B0E055
:1028E00004C0880F991FAA1FBB1F2A95D2F74091D9
:1028F000EE015091EF016091F0017091F101842798
:102900009527A627B7278093EE019093EF01A09318
:10291000F001B093F1010C94CA0FCF93DF9300D074
:1029200000D0CDB7DEB769837A838B839C83809197
:10293000EE019091EF01A091F001B091F101298198
:102940003A814B815C81822B932BA42BB52B8093F6
:10295000EE019093EF01A093F001B093F1010F907D
:102960000F900F900F90DF91CF910C94CA0FCF93DF
:10297000DF9300D000D0CDB7DEB769837A838B8335
:102980009C838091EE019091EF01A091F001B091B4
:10299000F10129813A814B815C8182239323A42315
:1029A000B5238093EE019093EF01A093F001B093D3
:1029B000F1010F900F900F900F90DF91CF910C9439
:1029C000CA0FCF93DF9300D000D0CDB7DEB76983B5
:1029D0007A838B839C838091EE019091EF01A0918B
:1029E000F001B091F10129813A814B815C8182270C
:1029F0009327A427B5278093EE019093EF01A0932E
:102A0000F001B093F1010F900F900F900F90DF91B4
:102A1000CF910C94CA0F0895E82F21E1929FE00D09
:102A200011248E2F877041E001C0440F8A95EAF788
:102A3000E695E695E69585E0E89FF0011124EF53D1
:102A4000FE4F30E020E070E05191DF011197CB01A3
:102A5000022E02C0969587950A94E2F781708195BF
:102A60008527842385278C932F5F3F4F25303105A1
:102A700059F70895E82F21E1929FE00D11249E2F30
:102A80009770E695E695E69585E0E89FF0011124BC
:102A9000EF53FE4F50E040E080E0219130E0092EFE
:102AA00002C0369527950A94E2F721703327042E49
:102AB00001C0220F0A94EAF7822B4F5F5F4F453027
:102AC000510559F70895BF92CF92DF92EF92FF928E
:102AD0000F931F93CF93DF938C01C090EE01D090A2
:102AE000EF01E090F001F090F1018091F2019091FE
:102AF000F301A091F401B091F501C82AD92AEA2A7C
:102B0000FB2ACFE1D0E0BC2ED701C6010C2E04C0B9
:102B1000B695A795979587950A94D2F780FD0EC034
:102B2000219788F7B12C8B2DDF91CF911F910F91B9
:102B3000FF90EF90DF90CF90BF900895B8018C2F59
:102B40000E942207019761F3EECFCF93DF93D82F36
:102B5000C92F0E9463156D2F7C2FDF91CF910C94AC
:102B600022071F93CF93DF93162FD72F90918801C1
:102B7000992339F0862F972FDF91CF911F910C94D5
:102B8000A515882391F0862F972F0E946315C82FD3
:102B9000682F812F9D2F0E940C15612F7D2F8C2F68
:102BA000DF91CF911F910C942207862F972F0E94BF
:102BB0003A15C82FF2CF8091F601859585958595B8
:102BC00008958091F6018770089598E0899F90019B
:102BD0001124622B6093F6010C9424149091F60159
:102BE000809589238093F601282F277061F4282F80
:102BF000082E000C330B9217130629F08595859546
:102C000085950C94461408959091F601977081E093
:102C100009F480E00895909112019923E1F09091D8
:102C20004C0297FF18C0E82FE695E695E695EF3140
:102C300039F12091000130910101E20FF32FF11DD4
:102C4000877021E030E001C0220F8A95EAF7818188
:102C5000822B818308952091000130910101F901B7
:102C600032969FEF40E05191851751F09F3F19F444
:102C7000511101C0942F4F5F4E31A9F79F3F09F4C6
:102C80000895290F311D97FD3A95F9018283089522
:102C900090911201992301F190914C0297FF1CC071
:102CA000E82FE695E695E695EF3139F120910001A0
:102CB00030910101E20FF32FF11D877021E030E028
:102CC000A90102C0440F551F8A95E2F7CA018095F9
:102CD0009181892381830895209100013091010120
:102CE000F9013296205E3F4F9191891303C0DF01B5
:102CF00011971C92E217F307B9F7089581E090E06D
:102D0000E0910001F0910101E80FF91F1082019696
:102D100080329105A9F7089590911A02982B90930B
:102D20001A020895982F909580911A028923809312
:102D30001A02089510921A02089590911902982B80
:102D4000909319020895982F9095809119028923E4
:102D50008093190208951092190208959091180213
:102D6000982B909318020895982F909580911802AF
:102D70008923809318020895109218020895809371
:102D8000F70108951092F701089520910001309104
:102D90000101F9013196205E3F4F80E09191911140
:102DA0008F5FE217F307D1F70895E0910001F091EA
:102DB000010180911A028083E0910001F0910101EC
:102DC000808190911902892B8083E0910001F0911C
:102DD0000101808190911802892B80839091F701E5
:102DE000992361F0E0910001F09101018081892B2C
:102DF00080830E94C51681111092F7018091000115
:102E0000909101010C94D50A6DEE7EEF90E080E088
:102E10000E948B2460E082E090E00E94792460E0D0
:102E200083E090E00E94792460E084E090E00E94DA
:102E3000792460E085E090E00C94792490E080E0D3
:102E40000E9473249C0181E02D3E3E4F09F080E0FA
:102E5000089582E090E00C946B24682F82E090E06B
:102E60000C94792483E090E00C946B24682F83E029
:102E700090E00C94792484E090E00C946B24682F0B
:102E800084E090E00C94792480915202843039F1EE
:102E900010921C0288E190E020E40FB6F894A89507
:102EA000809360000FBE2093600080E00E940307C3
:102EB00083B7817F846083BF83B7816083BF789449
:102EC000889583B78E7F83BF0FB6F894A8958091BD
:102ED0006000886180936000109260000FBE0895CA
:102EE00008950895CF93DF9300D000D00F92CDB70F
:102EF000DEB70E9470170E94B1090E9471171D82EF
:102F00008D810E94AA0A672B682B692B71F48D8131
:102F10008F5F8D838430A1F780E00F900F900F902A
:102F20000F900F90DF91CF91089581E0F6CF0E942E
:102F3000DE0F0E94C90A0C9403071F921FB61F924E
:102F400011248F939F93AF93BF9380911C028111A3
:102F500013C08091480290914902A0914A02B09119
:102F60004B024196A11DB11D8093480290934902E6
:102F7000A0934A02B0934B02BF91AF919F918F9162
:102F80001F901FBE1F90189582E084BD93E095BDF1
:102F90009AEF97BD80936E0008952FB7F8948091B3
:102FA000480290914902A0914A02B0914B022FBF72
:102FB0000895CF92DF92EF92FF929C014FB7F89461
:102FC0008091480290914902A0914A02B0914B022F
:102FD0004FBF6C017D01EE24FF24A90170E060E089
:102FE000C416D506E606F70638F0821B930BFF9051
:102FF000EF90DF90CF9008950197F7CF1F921FB603
:103000001F9211248F939F93AF93BF938091480297
:1030100090914902A0914A02B0914B020196A11DE4
:10302000B11D8093480290934902A0934A02B09345
:103030004B02BF91AF919F918F911F901FBE1F9028
:1030400018950E941420F8942FEF87EA91E62150FA
:1030500080409040E1F700C0000087E090EBDC0189
:1030600080935B0290935C02A0935D02B0935E023A
:1030700088E19CE00FB6F894A895809360000FBE9D
:1030800090936000FFCFAF92BF92CF92DF92EF920A
:10309000FF920F931F93CF93C0E0A82EB12C8C2FDB
:1030A0000E94AA0A6B017C0110E000E0D701C60172
:1030B000002E04C0B695A795979587950A94D2F7E8
:1030C00080FF13C0602F7C2F80E00E940607A816A7
:1030D000B90659F481E0CF911F910F91FF90EF90C5
:1030E000DF90CF90BF90AF9008950F5F1F4F0131D9
:1030F0001105E1F6CF5FC43091F680E0ECCFCF93BD
:10310000C82F8CE20E944318882321F08C2FCF9186
:103110000C94431880E0CF910895CF93DF9300D0B3
:1031200000D0CDB7DEB70E941E17811102C00E94E9
:10313000041795E6998308C00E94B1098FE39CE9C2
:103140000197F1F700C00000A981A150A983A11146
:10315000F3CF89E20E947F18811110C18AE20E9498
:103160007F1881110E94041785E00E947F18811149
:103170000E9421180E94291780931B0287E00E9459
:103180007F18882371F08BE10E947F18882309F44F
:10319000D1C090911B02892F8D7F91FF8260809317
:1031A0001B0280911B020E942D170E943B1790E08A
:1031B00090934D0280934C0280EE0E947F188823EA
:1031C00041F090914C02892F8E7F90FF8160809317
:1031D0004C0289E30E947F18882341F090914C02B1
:1031E000892F8D7F91FF826080934C0282EE0E9436
:1031F0007F18882341F090914C02892F8B7F92FF9A
:10320000846080934C0286EE0E947F18882341F0F0
:1032100090914C02892F877F93FF886080934C02A6
:1032200083EE0E947F18882341F090914C02892FF1
:103230008F7E94FF806180934C0285E30E947F180B
:10324000882341F090914C02892F8F7D95FF8062F9
:1032500080934C0281E30E947F18882341F0909173
:103260004C02892F8F7B96FF806480934C0281E112
:103270000E947F18882341F090914C02892F97FB80
:1032800087F9805880934C0280914C020E943F172E
:1032900087E20E947F1889838EE10E947F1888232D
:1032A00019F0B981B260B9838FE10E947F18882339
:1032B00019F029812460298380E20E947F188823E5
:1032C00019F039813860398381E20E947F188823A0
:1032D00019F049814061498382E20E947F18882366
:1032E00019F059815062598383E20E947F18882324
:1032F00019F089818064898384E20E947F18882381
:10330000B1F199819068998389810E94361739813A
:10331000232F30E050E040E029833A834B835C83E5
:10332000CA01B9010F900F900F900F90DF91CF91CC
:103330000C947D138EE00E947F18882339F09091C1
:103340001B02892F8B7F92FF846029CF80E10E942E
:103350007F1890911B02882329F0892F877F93FF84
:1033600088601DCF892F8E7F90FF816018CFA98143
:10337000A111CACF0E943217282FCBCF0F900F90E8
:103380000F900F90DF91CF91089580911F0280FFE1
:1033900012C06091050185E0689FB0011124759508
:1033A00067957595679560387105A8F56115710584
:1033B000A1F1862F089581FF09C06091050185E084
:1033C000689FB001112475956795EDCF6091050157
:1033D00082FD0AC0809120028823D1F090910401DF
:1033E00060910501891728F085E0689FB0011124DC
:1033F000DACF869FB001112485E0869F9001879FD8
:10340000300D1124692F70E0C9010E943D24CBCFFB
:1034100065E070E0CECF8FE7089581E00895809158
:103420001F0280FF0CC06091030170E075956795E5
:10343000759567956115710549F1862F089581FF8E
:1034400006C06091030170E075956795F3CF6091B8
:10345000030182FD0BC0909120029923A1F060919D
:10346000020180910301961738F0682F70E06038F0
:10347000710500F38FE70895899FC001112470E062
:103480000E943D24F4CF61E070E0D7CF81E0089541
:10349000803F31F40E94C5198195809323020895DD
:1034A000813F19F40E94C519F8CF823F31F40E9480
:1034B000C5198195809322020895833F19F40E94D3
:1034C000C519F8CF893F29F40E940F1A809324026E
:1034D00008958A3F21F40E940F1A8195F7CF8B3F00
:1034E00031F40E940F1A81958093250208958C3F34
:1034F00019F40E940F1AF8CF843F31F48091210211
:103500008160809321020895853F21F480912102FA
:103510008260F7CF863F21F4809121028460F1CF51
:10352000873F21F4809121028860EBCF883F21F40E
:10353000809121028061E5CF8D3F31F480911F029F
:10354000816080931F0208958E3F21F480911F02B5
:103550008260F7CF8F3FB9F780911F028460F1CF6F
:1035600090912202803F41F48091230287FD1092C6
:103570002302992371F00895813F29F48091230259
:103580001816ACF3F6CF823F81F497FFF2CF10927A
:1035900022028091230290912402892B909125028E
:1035A000892B49F7109220020895833F19F41916C8
:1035B00074F3DFCF893F39F4809124021816CCF6DA
:1035C00010922402D6CF8A3F29F48091240287FFEB
:1035D000D0CFF6CF8B3F39F48091250287FFC9CF3A
:1035E00010922502C6CF8C3F29F48091250218162F
:1035F000BCF3BFCF843F31F4809121028E7F809352
:103600002102B7CF853F21F4809121028D7FF7CF32
:10361000863F21F4809121028B7FF1CF873F21F4F7
:1036200080912102877FEBCF883F21F48091210296
:103630008F7EE5CF8D3F31F480911F028E7F809386
:103640001F0297CF8E3F21F480911F028D7FF7CF0D
:103650008F3F09F08ECF80911F028B7FF0CF81E2E8
:1036600092E00E94E00A0E94CD1790931E02809380
:103670001D0208951F93CF93DF9300D000D000D098
:10368000CDB7DEB780911D0290911E020E94D9171E
:10369000AC01809120022091060130E0811106C02A
:1036A000209107019AE0299F9001112442175307A6
:1036B00088F020912202A0912302A9831091240274
:1036C000B0912502BE8321110FC09A2F912B9B2B05
:1036D00009F0B2C026960FB6F894DEBF0FBECDBF7C
:1036E000DF91CF911F9108958F3F19F08F5F8093E5
:1036F0002002121624F40E94C519809322028091A0
:10370000220287FF05C00E94C5198195809322027D
:103710002981121624F40E94C519809323028091F6
:10372000230287FF05C00E94C5198195809323025B
:1037300080912202882309F455C0309123023D83F1
:10374000332309F44FC0282F880F330B440B550B3C
:1037500029833A834B835C83CA01B9010E944423C5
:1037600023E333E343E35FE369837A838B839C83BF
:1037700069817A818B819C810E94A82369837A83E5
:103780008B839C8369817A818B819C810E940C232D
:10379000609322028D81082E000C990BAA0BBB0BA3
:1037A00089839A83AB83BC83BC01CD010E944423EF
:1037B00023E333E343E35FE369837A838B839C836F
:1037C00069817A818B819C810E94A82369837A8395
:1037D0008B839C8369817A818B819C810E940C23DD
:1037E00060932302111624F40E940F1A809324027E
:1037F0008091240287FF05C00E940F1A8195809353
:1038000024029E81191624F40E940F1A8093250227
:103810008091250287FF05C00E940F1A8195809331
:10382000250226960FB6F894DEBF0FBECDBFDF91FE
:10383000CF911F910C942F1B8F3F09F057CF68CF6A
:1038400085E0E1E2F2E0DF011D928A95E9F710924E
:10385000200210921F020895809146020895CF938E
:10386000DF9300D00F92CDB7DEB720915202243003
:1038700019F523E029838A839B832093E9008FEF46
:103880009091E800815095FD06C095ED9A95F1F76D
:1038900000008111F5CF8091E80085FF0DC050E058
:1038A00040E063E070E0CE0101960E948C1E8091A2
:1038B000E8008E778093E8000F900F900F90DF91D3
:1038C000CF910895CF93DF9300D00F92CDB7DEB79D
:1038D0009C0180915202843031F582E08983205826
:1038E00031093B832A8383E08093E9008FEF909135
:1038F000E800815095FD06C095ED9A95F1F700001E
:103900008111F5CF8091E80085FF0DC050E040E0C7
:1039100063E070E0CE0101960E948C1E8091E80069
:103920008E778093E8000F900F900F90DF91CF91EA
:103930000895209152022430F1F422E02093E9000E
:103940002FEF3091E800215035FD06C035ED3A9556
:10395000F1F700002111F5CF2091E80025FF0BC001
:1039600050E040E065E070E00E948C1E8091E8002D
:103970008E778093E8000895CF93DF93D82FC92FD7
:10398000809152028430F1F4909112019923E9F070
:1039900090914C0297FF19C08093E9008FEF9091AE
:1039A000E800815095FD06C095E19A95F1F7000079
:1039B0008111F5CF8091E80050E040E060E270E0D6
:1039C00085FD1AC0DF91CF91089581E08093E900D1
:1039D0008FEF9091E800815095FD06C095ED9A9586
:1039E000F1F700008111F5CF8091E80085FFEACF63
:1039F00050E040E068E070E08D2F9C2F0E948C1E0C
:103A00008091E8008E778093E80080E2ED2FFC2F14
:103A1000A6E2B2E001900D928A95E1F7D3CF8091B2
:103A20005102811109C00E9414200E9471208091CE
:103A3000E20084608093E20008951092510208959C
:103A4000089508950C94971742E061EC81E00E947C
:103A5000901F42E061EC82E00E94901F42E061EC26
:103A600083E00E94901F42E261EC84E00C94901F7E
:103A700080915402893089F148F4823009F494C06D
:103A8000833009F44FC0813041F008958A3009F441
:103A90007BC08B3009F461C0089580915302813A54
:103AA00009F03FC08091E800877F8093E800809113
:103AB000570290915802892B61F460E286E292E00D
:103AC00070E00E94DB1E8091E8008B778093E80015
:103AD000089560E090E080E0F3CF8091530281325E
:103AE00001F58091570290915802009711F00397C9
:103AF000C1F48091E800877F8093E8008091E8001E
:103B000082FF0BC08091F100809346028091E80013
:103B10008B778093E8000C94C41F8091520281112E
:103B2000EDCF089580915302813AD9F780915702E1
:103B300090915802892BA9F78091E800877F8093A4
:103B4000E8008091E80080FFFCCF80911201809313
:103B5000F1008091E8008E77DCCF809153028132B2
:103B600001F78091570290915802892BD1F68091EC
:103B7000E800877F8093E8000E94C41F809155026F
:103B8000809312010C94DE0F80915302813249F62A
:103B90008091E800877F8093E8000E94C41F809195
:103BA000560280934702089580915302813A09F0AA
:103BB000B8CF8091E800877F8093E8008091E8008B
:103BC00080FFFCCF80914702C2CF84B7877F84BF3C
:103BD0000FB6F894A895809160008861809360008A
:103BE000109260000FBE80E8809361001092610027
:103BF0000E94180B0E9414200E9471208091E20004
:103C000084608093E20078940E94F1220E941A0B53
:103C100088E091E00E94C40A80915202853019F038
:103C20000E94200BF9CF0E944417809150028823F4
:103C300099F30E947217882379F30E94761EECCFC5
:103C40009C01DA01892F992783309105C1F068F42E
:103C50008130910509F445C0029761F48DE690E04A
:103C60002CE539E02D933C93089581329105E1F0E4
:103C7000829739F190E080E030E020E0F3CFC90195
:103C80009927213059F08230910559F0E8E5F9E0A3
:103C9000892B81F7849190E09F01E4CFE0E4F9E083
:103CA000F9CFECE2F9E0F6CF643020F7E62FF0E050
:103CB000EE0FFF1FEC5CFE4F2081318189E090E028
:103CC000D1CF6430B8F670E0FB01EE0FFF1FE45D6A
:103CD000FE4F20813181685D7E4FFB01808190E045
:103CE000C1CF82E190E029EC39E0BCCF80E189BD11
:103CF00082E189BD09B400FEFDCF8091D8008F7D9F
:103D00008093D8008091E00082608093E0008091F1
:103D1000E00081FDFCCF0895AF92BF92CF92DF9279
:103D2000FF920F931F93CF93DF936C01EB018A01F6
:103D30000E94E31FF82E811123C00115110539F0EF
:103D4000F80180819181C81BD90BC80ED91EB12CF6
:103D5000A12C2097A9F08091E80085FD22C08091D8
:103D6000E8008E778093E80001151105A1F0F801B5
:103D700080819181A80EB91EB182A08285E0F82EC3
:103D80008F2DDF91CF911F910F91FF90DF90CF90FA
:103D9000BF90AF9008950E94E31F8823D1F2F82EC0
:103DA000EFCFF60181916F018093F1002197FFEF32
:103DB000AF1ABF0ACECFFC01CB012091590230913E
:103DC0005A022617370790F0009729F42091E8004F
:103DD0002E772093E80040E0009751F4411108C08D
:103DE0008091E80082FF31C080E00895C901F3CFDF
:103DF000209152022223A9F12530A9F12091E80057
:103E000023FD2DC02091E80022FDEACF2091E8009B
:103E100020FFE2CF3091F3002091F200009719F0DB
:103E20002830310558F041E02830310509F040E0F4
:103E30002091E8002E772093E800CECF4191409367
:103E4000F10001972F5F3F4FE9CF80915202882305
:103E500041F0853041F08091E80083FFC1CF81E0DF
:103E6000089582E0089583E00895FC01CB0120913C
:103E7000590230915A022617370790F0009729F41B
:103E80002091E8002E772093E80040E0009751F45D
:103E9000411108C08091E80082FF32C080E008959F
:103EA000C901F3CF209152022223B1F12530B1F1A3
:103EB0002091E80023FD2EC02091E80022FDEACFEA
:103EC0002091E80020FFE2CF3091F3002091F20032
:103ED000009719F02830310558F041E028303105BD
:103EE00009F040E02091E8002E772093E800CECF43
:103EF00044914093F100319601972F5F3F4FE8CFF7
:103F000080915202882341F0853041F08091E80091
:103F100083FFC0CF81E0089582E0089583E0089593
:103F2000982F973028F08F708093E90081E00895F2
:103F30009093E900242F762F50E0981731F070917C
:103F4000EC002091ED005091F00021FD02C09F5F38
:103F5000E8CF3091EB003E7F3093EB003091ED00E5
:103F60003D7F3093ED003091EB0031603093EB00FA
:103F70007093EC002093ED005093F0002091EE0040
:103F800027FDE5CF80E008958091530287FF13C09D
:103F90008091E80082FF06C08091E8008B778093D3
:103FA000E80004C0809152028111F2CF08958091FF
:103FB00052028823D9F38091E80080FFF8CF8091E6
:103FC000E8008E77ECCF2091E4003091E50095E693
:103FD000A9012091EC00822F817020FF06C0809102
:103FE000E80080FF06C080E008952091E80022FDEF
:103FF0001AC080915202882389F0853089F080911F
:10400000EB0085FD0FC02091E4003091E5004217E0
:104010005307F9F29150E1F684E0089582E00895A3
:1040200083E0089581E008950E9482200E948A2002
:10403000E0EEF0E0808181608083E8EDF0E0808157
:104040008F77808319BCA7EDB0E08C918E7F8C9325
:1040500080818F7E80831092510208950F931F9369
:10406000CF93DF930E9482200E948A20C8EDD0E087
:1040700088818F77888388818068888388818F7D15
:10408000888319BC1092520210924E021092500274
:1040900010924F0200EE10E0F80180818B7F808348
:1040A00088818160888342E060E080E00E94901F08
:1040B000E1EEF0E080818E7F8083E2EEF0E08081AF
:1040C00081608083808188608083F80180818E7F19
:1040D0008083888180618883DF91CF911F910F91C8
:1040E0000895E8EDF0E080818F7E8083E7EDF0E0D9
:1040F00080818160808384E082BF81E0809351026F
:104100000C942E20E8EDF0E080818E7F8083109269
:10411000E20008951092DA001092E10008951F92D3
:104120000F920FB60F9211242F933F934F935F93EB
:104130006F937F938F939F93AF93BF93EF93FF936F
:104140008091E10082FF0BC08091E20082FF07C0F6
:104150008091E1008B7F8093E1000E94F0228091AA
:10416000DA0080FF19C08091D80080FF15C08091CF
:10417000DA008E7F8093DA008091D90080FF94C0AE
:1041800080E189BD82E189BD09B400FEFDCF81E0F7
:10419000809352020E940F1D8091E10080FF19C0A0
:1041A0008091E20080FF15C08091E2008E7F8093B5
:1041B000E2008091E20080618093E2008091D8006B
:1041C00080628093D80019BC85E0809352020E94DF
:1041D000211D8091E10084FF29C08091E20084FFCD
:1041E00025C080E189BD82E189BD09B400FEFDCF13
:1041F0008091D8008F7D8093D8008091E1008F7EE0
:104200008093E1008091E2008F7E8093E2008091B4
:10421000E20081608093E20080914E02882309F4DD
:1042200049C084E0809352020E94221D8091E100E7
:1042300083FF29C08091E20083FF25C08091E100C7
:10424000877F8093E10082E08093520210924E02B9
:104250008091E1008E7F8093E1008091E2008E7F6B
:104260008093E2008091E20080618093E20042E06E
:1042700060E080E00E94901F8091F0008860809351
:10428000F0000E94201DFF91EF91BF91AF919F918F
:104290008F917F916F915F914F913F912F910F90EF
:1042A0000FBE0F901F90189519BC109252020E94D9
:1042B0001D1D72CF8091E30087FD02C081E0B2CF67
:1042C00083E0B0CF1F920F920FB60F9211242F935D
:1042D0003F934F935F936F937F938F939F93AF938E
:1042E000BF93CF93DF93EF93FF93D091E900DF70FB
:1042F0008091EC00C82FC17080FDC0E81092E900E9
:104300008091F000877F8093F00078940E94A6212E
:104310001092E9008091F00088608093F000CD2B2E
:10432000CF70C093E900FF91EF91DF91CF91BF91E2
:10433000AF919F918F917F916F915F914F913F913D
:104340002F910F900FBE0F901F9018951F93CF9332
:10435000DF93CDB7DEB7AA970FB6F894DEBF0FBED6
:10436000CDBF83E592E0FC0101962091F10020830E
:1043700022E08B359207B9F70E94381D8091E80042
:1043800083FF16C180915302909154029A3008F035
:104390000FC1E92FF0E0EB53FB4D0C945124803812
:1043A00081F0823809F004C1809157028F708093A8
:1043B000E9008091EB0085FB882780F91092E900E5
:1043C00006C080914F0290915002911182609091AD
:1043D000E800977F9093E8008093F1001092F1003D
:1043E0008091E8008E77E0C0882309F4CEC0823047
:1043F00009F0DEC0809155028111D1C08091570231
:104400008F7009F4D5C08093E9002091EB0020FF64
:10441000C6C0933031F48091EB0080628093EB0052
:10442000BEC09091EB0090619093EB0021E030E0F2
:1044300001C0220F8A95EAF72093EA001092EA0061
:104440008091EB008860EACF8111B2C010915502D3
:104450001F778091E3008078812B8093E300809127
:10446000E800877F8093E8000E94C41F8091E800E5
:1044700080FFFCCF8091E30080688093E30082E0BE
:10448000111183E08093520293C08058823008F06B
:104490008FC080915502909156028C3D23E0920787
:1044A000A1F583E08A838AE289834FB7F894DE011D
:1044B000139620E03EE051E2E32FF0E050935700E6
:1044C000E49120FF03C0E295EF703F5FEF708E2F05
:1044D00090E0EA30C0F0C7968D939D932F5F243112
:1044E00059F74FBF8091E800877F8093E8006AE228
:1044F00070E0CE0101960E94DB1E8091E8008B7770
:104500008093E80055C0C096E7CFAE014F5F5F4F84
:10451000609157020E94201EBC01892B09F448C0FB
:104520008091E800877F8093E80089819A810E94CA
:10453000351FE3CF8038E1F58091E800877F8093D5
:10454000E80080914E028093F1004ACF811130C083
:1045500090915502923060F58091E800877F8093BA
:10456000E80090934E020E94C41F80914E0288235F
:1045700011F084E005C08091E30087FDFACF81E06F
:10458000809352020E94241D13C0809155028130F5
:1045900079F481E0933009F080E08093500210922A
:1045A000E9008091E800877F8093E8000E94C41FA3
:1045B0008091E80083FF0AC08091E800877F8093A4
:1045C000E8008091EB0080628093EB00AA960FB622
:1045D000F894DEBF0FBECDBFDF91CF911F9108953C
:1045E0000895CF93809152028823A1F0C091E900F1
:1045F000CF709091EC00892F817090FD80E8C82BDE
:104600001092E9008091E80083FD0E94A621CF70FE
:10461000C093E900CF9108950E9413236894B111CB
:104620000C94A22308950E94872388F09F5798F046
:10463000B92F9927B751B0F0E1F0660F771F881FA7
:10464000991F1AF0BA95C9F714C0B13091F00E94C1
:10465000A123B1E008950C94A123672F782F882718
:10466000B85F39F0B93FCCF3869577956795B395E8
:10467000D9F73EF490958095709561957F4F8F4F57
:104680009F4F0895E89409C097FB3EF4909580955C
:10469000709561957F4F8F4F9F4F9923A9F0F92F08
:1046A00096E9BB279395F695879577956795B79586
:1046B000F111F8CFFAF4BB0F11F460FF1BC06F5F6C
:1046C0007F4F8F4F9F4F16C0882311F096E911C07E
:1046D000772321F09EE8872F762F05C0662371F09F
:1046E00096E8862F70E060E02AF09A95660F771FB3
:1046F000881FDAF7880F9695879597F9089557FDE3
:104700009058440F551F59F05F3F71F04795880F3F
:1047100097FB991F61F09F3F79F0879508951216D6
:1047200013061406551FF2CF4695F1DF08C0161682
:1047300017061806991FF1CF869571056105089433
:104740000895E894BB2766277727CB0197F908954A
:104750000E94BB230C942C240E941E2438F00E943B
:10476000252420F0952311F00C9415240C941B247F
:1047700011240C94A2230E947F2370F3959FC1F310
:10478000950F50E0551F629FF001729FBB27F00DFF
:10479000B11D639FAA27F00DB11DAA1F649F662754
:1047A000B00DA11D661F829F2227B00DA11D621FA3
:1047B000739FB00DA11D621F839FA00D611D221F5D
:1047C000749F3327A00D611D231F849F600D211D41
:1047D000822F762F6A2F11249F5750409AF0F1F0C4
:1047E00088234AF0EE0FFF1FBB1F661F771F881F2D
:1047F00091505040A9F79E3F510580F00C9415242C
:104800000C94A2235F3FE4F3983ED4F3869577950A
:104810006795B795F795E7959F5FC1F7FE2B880FD2
:10482000911D9695879597F9089597F99F6780E868
:1048300070E060E008959FEF80EC089500240A94F2
:104840001616170618060906089500240A9412166B
:104850001306140605060895092E0394000C11F49E
:10486000882352F0BB0F40F4BF2B11F460FF04C04B
:104870006F5F7F4F8F4F9F4F089597FB072E16F462
:10488000009407D077FD09D00E94572407FC05D07B
:104890003EF4909581959F4F0895709561957F4F57
:1048A0000895EE0FFF1F0590F491E02D0994AA1BC7
:1048B000BB1B51E107C0AA1FBB1FA617B70710F00B
:1048C000A61BB70B881F991F5A95A9F7809590953D
:1048D000BC01CD010895F999FECF92BD81BDF89A32
:1048E000992780B50895A8E1B0E042E050E00C942B
:1048F0009324262FF999FECF92BD81BDF89A019796
:1049000000B4021639F01FBA20BD0FB6F894FA9A17
:10491000F99A0FBE08950196272F0E947A240C94CD
:104920007924DC01CB01FC01F999FECF06C0F2BD70
:10493000E1BDF89A319600B40D9241505040B8F75D
:104940000895F894FFCF6E067A067E0682068606E4
:104950008A068E06920696069A069E06A206A60667
:10496000AA06AE06B206B606BA06890D890DE10D95
:10497000E10D250E410EB90DB90D4C0EB90D140FF8
:10498000140F7F0FB90DB90D880FCF21F421D82254
:0E499000F421D82224224522D8229A22A622DF
:10499E00F8012808140A321E2C1CBC1C991C621C1F
:1049AE002F1C01343536376061626364656667902B
:1049BE009192939430313233404D3639970A4A0AE8
:0C49CE00140ADB096E098709A009B90969
:00000001FF
